:020000040000FA
:1000000057EF6AF0FFFFFFFFFFFFFFFFFFFFFFFF5C
:10001000FFFFFFFFFFFFFFFFFFFFFFFFFFFFFFFFF0
:10002000FFFFFFFFFFFFFFFFFFFFFFFFFFFFFFFFE0
:10003000FFFFFFFFFFFFFFFFFFFFFFFFFFFFFFFFD0
:10004000FFFFFFFFFFFFFFFFFFFFFFFFFFFFFFFFC0
:10D11000FFFFFFFFFFFFFFFFFFFFFFFF01C003F067
:10D1200002C004F004C0CFFF03C0CEFF1200CECF78
:10D1300003F0CFCF04F003C001F004C002F01200EE
:10D14000016E01500F0BBD6E01AE02D09E949D8406
:10D1500094841200026E0D0E016EFC0EE82EFED7B6
:10D16000012EFCD7022EF7D71200060170D40E60F4
:10D170003030000E7732000E7731000E70000C0058
:10D18000000190919EA402D000019081BECF03F0D7
:10D19000BFCF04F003C001F004C002F01200036E20
:10D1A000000E026E3A0E035CD8B005D02F0E036459
:10D1B00002D0010E026E02C001F0013012007F0E9B
:10D1C000031402100110D8B406D0000E011A000E8C
:10D1D000021A800E031A01C001F002C002F003C05F
:10D1E00003F012000F501102F3CF13F0F4CF14F03C
:10D1F0000F501202F350142610501102F35014264F
:10D2000013C00FF014C010F01200016E01507E0B1D
:10D21000CD6E01AC02D0CD8E01D0CD9E000ECF6E72
:10D22000000ECE6E9E9001AE02D09D8001D09D90EA
:10D23000CD801200000E3D1A000E3E1A800E3F1ADD
:10D240003AC02EF03BC02FF03CC030F03DC031F072
:10D250003EC032F03FC033F09DEC71F02EC03AF08A
:10D260002FC03BF030C03CF0120000019551010D81
:10D270000101000EF324D96E0101010EF420DA6ED3
:10D28000DF50AD6E0001952B0001955100019263B6
:10D2900006D0000E0001926F000E0001956F120083
:10D2A00000019251010D0101000EF324406E0101B5
:10D2B000010EF420416EFF0E436EFC0E426E000123
:10D2C000000E456E0001C70E446E9CEC7AF0405093
:10D2D000000192250001926F120000019251010D90
:10D2E0000101000EF324406E0101010EF420416E95
:10D2F000FF0E436EB60E426E0001000E456E000139
:10D30000C70E446E9CEC7AF040500001922500015B
:10D31000926F120000019251010D0101000EF324E1
:10D32000406E0101010EF420416EFF0E436E6E0E41
:10D33000426E0001000E456E0001CB0E446E9CEC67
:10D340007AF04050000192250001926F1200000116
:10D350009251010D0101000EF324406E0101010EF6
:10D36000F420416EFF0E436EAA0E426E0001000EC5
:10D37000456E0001CB0E446E9CEC7AF040500001EB
:10D3800092250001926F120000019251010D0101DE
:10D39000000EF324406E0101010EF420416EFF0ED9
:10D3A000436E8F0E426E0001000E456E0001C20EEC
:10D3B000446E9CEC7AF04050000192250001926F7F
:10D3C000120000019251010D0101000EF324406E84
:10D3D0000101010EF420416EFF0E436E7F0E426E7E
:10D3E0000001000E456E0001CB0E446E9CEC7AF0FD
:10D3F0004050000192250001926F120000019251ED
:10D40000010D0101000EF324406E0101010EF42014
:10D41000416EFF0E436E5D0E426E0001000E456EC2
:10D420000001CB0E446E9CEC7AF040500001922536
:10D430000001926F120000019251010D0101000ED6
:10D44000F324406E0101010EF420416EFF0E436E85
:10D450009D0E426E0001000E456E0001CB0E446E23
:10D460009CEC7AF04050000192250001926F12006E
:10D47000000E00018F6F000E00018E6F000E000184
:10D48000976F000E0001966F000E0001996F010E5C
:10D490000001986F0001949150EC69F08AEC69F0FA
:10D4A000EC0E0001C16F800E0001C06F120001EE92
:10D4B00000F07C0EEE6AE806FDE100EE80F03E0E24
:10D4C000EE6AE806FDE16A0EF66ED10EF76E000E0A
:10D4D000F86E00EEBEF010EE16F00900F5CFEEFF8C
:10D4E000E550E150FAE100013DEF6CF0000192518E
:10D4F000010D0101000EF324406E0101010EF42024
:10D50000416EFF0E436EC00E426E0001000E456E6E
:10D510000001C70E446E84C046F085C047F086C047
:10D5200048F087C049F09CEC7AF040500001922509
:10D530000001926F12008E0E116E06D0D8900C3240
:10D540000B320A320932112A000E09140D6E000E38
:10D550000A140E6E000E0B140F6EFF0E0C14106EDC
:10D5600010500D100E100F10D8A4E8D709C001F00C
:10D570000AC002F00BC003F011C004F0000E056EEB
:10D58000E0EC6CF001C009F002C00AF003C00BF03F
:10D5900012001550121013101410D8B424D0010E1C
:10D5A000166E06D0D8901236133614361536162A53
:10D5B00015AEF8D712500E5C13500F581450105877
:10D5C00015501158D8A008D012500E5E13500F5AA3
:10D5D0001450105A1550115AD89015321432133273
:10D5E0001232162EE7D70EC00EF00FC00FF010C08B
:10D5F00010F011C011F01200066E000EAC6E000E9D
:10D60000AB6E06B0AC8806A202D0AC8CAB8C06B474
:10D61000AC8E06A602D0AB8801D0AB8A06B8AC842B
:10D620009E9806BAAB8606AC02D09D8A01D09D9A20
:10D630009E9A06AE02D09D8801D09D9801C0AFFF92
:10D6400002C003F003C004F0056A0450B06EAC8A57
:10D65000AB8E949C948EACB8ACBE01D0948C12006E
:10D66000948E949C949A94889486948494929490A2
:10D67000939E939C939A9398938693949392000E7F
:10D68000926E000E026E100E016E3C0EFCEC6AF003
:10D690003D0E05EC69F0000E026E000E016E8EEC80
:10D6A00068F09E90040EA0EC68F0000E086E000E6C
:10D6B000076E000E086E000E076E0850800A800F7D
:10D6C000230ED8B4075CD8B006D0C80EAAEC68F018
:10D6D000074A082AF2D71200000E096E000E0A6EE1
:10D6E000000E0B6E000E0C6E085005100610071091
:10D6F000D8B42AD0010E0D6E06D0D8900536063665
:10D70000073608360D2A08AEF8D7D89009360A36FB
:10D710000B360C360550015C065002580750035872
:10D7200008500458D8A009D00550015E0650025A8E
:10D730000750035A0850045A0980D890083207321B
:10D74000063205320D2EE1D709C001F00AC002F001
:10D750000BC003F00CC004F0120003AE16D001C0E1
:10D7600007F002C008F003C009F0071E081E091EDA
:10D77000072A000E08220922000E0724016E000E5F
:10D780000820026E800E0920036E06AE16D004C07B
:10D7900007F005C008F006C009F0071E081E091EA4
:10D7A000072A000E08220922000E0724046E000E2C
:10D7B0000820056E800E0920066E000E011A000E6C
:10D7C000021A800E031A000E041A000E051A800EAB
:10D7D000061A0450015C0550025806500358D8B090
:10D7E00002D0D89001D0D8801200000E066E0250F0
:10D7F000800AF36E800EF35C000ED8B4015CD8B0E2
:10D8000006D0016C021ED8B0022A010E066E04502A
:10D81000800AF36E800EF35C000ED8B4035CD8B0BF
:10D8200004D0036C041ED8B0042A04500310D8B4EA
:10D8300018D0010E056E04D0D89003360436052AA0
:10D8400004AEFAD70350015C04500258D8A004D0AB
:10D850000350015E0450025AD89004320332052E60
:10D86000F1D70650D8B404D0016C021ED8B0022AF9
:10D8700001C001F002C002F01200140EAAEC68F020
:10D88000000E7F6E000E7E6E140E7E5C000E7F58C2
:10D89000D8B014D0960E7C6E000E7D6ED8907E347B
:10D8A000D96E7F34DA6E7C50D9267D50DA22000E94
:10D8B000DE6E000EDD6E7E4A7F2AE6D730EC6BF01E
:10D8C000000E0001916F000E0001936F9EA805D01D
:10D8D00000019251D8A435EC69F09EA004D09E902E
:10D8E00000018E4B8F2B82A603D00001938102D0C2
:10D8F0000001939182A803D00001938302D000011C
:10D90000939301D8E3D70500FA6E0001C051FD6E74
:10D910000001C151FE6EFF6AFA501200000E0C6E3B
:10D920000A50800AF36E800EF35C000ED8B4095CD6
:10D93000D8B006D0096C0A1ED8B00A2A010E0C6EA7
:10D940000850800AF36E800EF35C000ED8B4075CBA
:10D95000D8B006D0076C081ED8B0082A010E0C1AE1
:10D96000000E0E6E000E0D6E0A500910D8B41CD0B9
:10D97000010E0B6E04D0D89009360A360B2A0AAE77
:10D98000FAD7D8900D360E360950075C0A50085861
:10D99000D8A005D00950075E0A50085A0D80D890CB
:10D9A0000A3209320B2EEDD70C50D8B404D00D6CCE
:10D9B0000E1ED8B00E2A0DC007F00EC008F01200DF
:10D9C0000450D8B405D0015002100310D8A40CD0D4
:10D9D000000E016E000E026E000E036E44D0042A8B
:10D9E000D890033202320132000E0114066E000E8E
:10D9F0000214076EFE0E0314086E0650071008107E
:10DA0000D8B40CD0ECD7042A010E0126000E022255
:10DA1000000E0322D890033202320132000E0114AC
:10DA2000066E000E0214076EFF0E0314086E0650F9
:10DA300007100810D8B406D0E6D70406D8900136EF
:10DA40000236033602AEF9D704A0029ED890043203
:10DA5000045003120550D8A4038E01C001F002C087
:10DA600002F003C003F012002DC02FF0306A316ABB
:10DA70002C342F3601E330802F50396E396601D0B7
:10DA800038D0170E2F6E2BC030F02CC031F02DC0C7
:10DA900032F02F28336E04D0D89032323132303207
:10DAA000332EFAD73050346E2C8EFF0E2B16FF0E0D
:10DAB0002C16000E2D162B50356E2C50366E2D5018
:10DAC000376E386A8E0E395E39AE10D03950800A02
:10DAD0002F6EF10E800A2F5CD8A00BD0D890383270
:10DAE000373236323532393EF9D714D0170E396411
:10DAF0000FD0000E2B6E000E2C6E000E2D6E000E41
:10DB00002E6E1BD0D8903536363637363836390635
:10DB10003966F8D73450D8B408D0381E371E361EB0
:10DB2000356C000E36223722382235C02BF036C035
:10DB30002CF037C02DF038C02EF0120014C018F0B1
:10DB4000196A1A6A1334183601E3198018501F6EC7
:10DB50001F6601D00CD017C018F0196A1A6A163463
:10DB6000183601E319801850206E206607D0000E89
:10DB7000126E000E136E000E146E4AD0000E1C6E54
:10DB8000000E1D6E000E1E6E2050890F1F5E14C009
:10DB900020F01750201A800E2016138EFF0E12163A
:10DBA000FF0E1316000E1416168EFF0E1516FF0E1E
:10DBB0001616000E1716180E1B6ED8901C361D3642
:10DBC0001E361550125C1650135817501458D8A012
:10DBD00007D01550125E1650135A1750145A1C8055
:10DBE000D8901236133614361B2EE7D71CC001F01E
:10DBF0001DC002F01EC003F01FC004F020C005F0DD
:10DC0000E0EC6CF001C012F002C013F003C014F09D
:10DC1000120017C01BF01C6A1D6A16341B3601E384
:10DC20001C801B501E6E1E6601D00CD01AC01BF04B
:10DC30001C6A1D6A19341B3601E31C801B50236EBD
:10DC4000236607D0000E156E000E166E000E176EBE
:10DC500051D023507B0F1E2617C023F01A50231AD1
:10DC6000800E2316168E198EFF0E1816FF0E19162B
:10DC7000000E1A16000E1F6E000E206E000E216E92
:10DC8000070E226E15A006D018501F26195020220C
:10DC90001A502122D890173216321532D8901836E1
:10DCA00019361A36222EEED7090E226E15A006D08E
:10DCB00018501F26195020221A502122D8901732AE
:10DCC00016321532D890213220321F32222EEED752
:10DCD0001FC001F020C002F021C003F01EC004F0FC
:10DCE00023C005F0E0EC6CF001C015F002C016F0A6
:10DCF00003C017F01200000193A121D0E00E000133
:10DD0000C16F280E0001C06F9E94000E00018B6F42
:10DD1000000E00018A6F000E00018F6F000E0001DF
:10DD20008E6F000E0001976F000E0001966F000EBF
:10DD30000001996F000E0001986F6DEC69F0050EFF
:10DD400000018E5D000E00018F59D8A051D0000156
:10DD500093A34ED0960E7A6E000E7B6ED890000183
:10DD60008A35D96E00018B35DA6E7A50D9267B5010
:10DD7000DA220001DECF9AF00001DDCF9BF0000136
:10DD80008A4B8B2B960E7A6E000E7B6ED89000011C
:10DD90008A35D96E00018B35DA6E7A50D9267B50E0
:10DDA000DA220001DECF9CF00001DDCF9DF0000102
:10DDB0008A4B8B2B50EC69F00001000E756E000150
:10DDC000960E746E20EC75F0000E00018F6F000E41
:10DDD00000018E6F140E00018A5D000E00018B5948
:10DDE000D8A006D0000E00018B6F040E00018A6FD0
:10DDF000120003C007F0086A096A0234073601E31B
:10DE0000088007500F6E0F6601D059D006C007F08A
:10DE1000086A096A0534073601E3088007500E6E68
:10DE20000E6601D04CD0028EFF0E0116FF0E0216B8
:10DE3000000E0316058EFF0E0416FF0E0516000ECB
:10DE40000616000E0A6E000E0B6E000E0C6E000E13
:10DE50000D6E7F0E0F5E0E50980F0F5E180E0E6E39
:10DE6000D8900A360B360C360D360450015C05503E
:10DE7000025806500358D8A007D00450015E055040
:10DE8000025A0650035A0A80D890013602360336E9
:10DE90000E2EE6D70FAE10D00F50800A076EE90E97
:10DEA000800A075CD8A00BD0D8900D320C320B3210
:10DEB0000A320F3EF9D714D0170E0F640FD0000EA0
:10DEC000016E000E026E000E036E000E046E10D086
:10DED000D8900A360B360C360D360F060F66F8D77B
:10DEE0000AC001F00BC002F00CC003F00DC004F03A
:10DEF000120001C007F002C008F003C009F004C01E
:10DF00000AF0180E05D0D8900A32093208320732CA
:10DF1000E82EF9D70750106E106601D06BD004C000
:10DF200007F005C008F006C009F007C00AF0180E97
:10DF300005D0D8900A32093208320732E82EF9D7D4
:10DF400007500F6E0F6601D055D0038EFF0E0116DD
:10DF5000FF0E0216FF0E0316000E0416068EFF0EAD
:10DF60000416FF0E0516FF0E0616000E0716000E0D
:10DF70000B6E000E0C6E000E0D6E000E0E6E7F0E00
:10DF8000105E0F50A00F105E200E0F6ED8900B3653
:10DF90000C360D360E360450015C05500258065002
:10DFA000035807500458D8A009D00450015E05500A
:10DFB000025A0650035A0750045A0B80D890013673
:10DFC0000236033604360F2EE1D710AE10D01050B3
:10DFD000800A076EE10E800A075CD8A00BD0D890AB
:10DFE0000E320D320C320B32103EF9D714D01F0E08
:10DFF00010640FD0000E016E000E026E000E036E54
:10E00000000E046E10D0D8900B360C360D360E363E
:10E0100010061066F8D70BC001F00CC002F00DC05E
:10E0200003F00EC004F012009EA44FD0C0EC68F0C4
:10E03000960E7A6E000E7B6ED89000018A35D96EEE
:10E0400000018B35DA6E7A50D9267B50DA2201C076
:10E05000DEFF02C0DDFF00018A4B8B2B960E7A6E2D
:10E06000000E7B6ED89000018A35D96E00018B3589
:10E07000DA6E7A50D9267B50DA2200018EC0DEFF9C
:10E0800000018FC0DDFF00018A4B8B2B9E940001A5
:10E090008A51020A8B11D8A418D06DEC69F0060ED3
:10E0A0000001846F010E0001856F000E0001866F74
:10E0B000000E0001876F040E00018E250001BE6F67
:10E0C000000E00018F210001BF6F000193A306D055
:10E0D000D40E0001C16F700E0001C06F020E00016E
:10E0E0008A5D000E00018B59D8A02BD00001BF51D2
:10E0F00000018F1904E10001BE5100018E19D8A45E
:10E1000020D076EC6AF0040E0001BE250001BE6F3F
:10E11000000E0001BF210001BF6F060E0001842523
:10E120000001846F010E000185210001856F000E42
:10E13000000186210001866F000E00018721000189
:10E14000876F120E00018A5D000E00018B59D8A066
:10E1500022D09CC0BCF09DC0BDF09AC0BAF09BC05C
:10E16000BBF00001000E756E0001960E746E20EC7F
:10E1700075F0000E00018B6F040E00018A6F000E17
:10E1800000018F6F000E00018E6FDC0E0001C16F69
:10E19000F60E0001C06F12009EA44FD0C0EC68F0D4
:10E1A000960E7A6E000E7B6ED89000018A35D96E7D
:10E1B00000018B35DA6E7A50D9267B50DA2201C005
:10E1C000DEFF02C0DDFF00018A4B8B2B960E7A6EBC
:10E1D000000E7B6ED89000018A35D96E00018B3518
:10E1E000DA6E7A50D9267B50DA2200018EC0DEFF2B
:10E1F00000018FC0DDFF00018A4B8B2B9E94000134
:10E200008A51020A8B11D8A418D06DEC69F0060E61
:10E210000001846F010E0001856F000E0001866F02
:10E22000000E0001876F040E00018E250001BE6FF5
:10E23000000E00018F210001BF6F000193A306D0E3
:10E24000D40E0001C16F700E0001C06F000193A1D8
:10E250000FD0000194B10CD0030E00018E5D000EB2
:10E2600000018F59D8A004D000019481C4EC69F05A
:10E2700000018A51020A8B11D8A42BD00001BF5192
:10E2800000018F1904E10001BE5100018E19D8A4CC
:10E2900020D076EC6AF0040E0001BE250001BE6FAE
:10E2A000000E0001BF210001BF6F060E0001842592
:10E2B0000001846F010E000185210001856F000EB1
:10E2C000000186210001866F000E000187210001F8
:10E2D000876F00018A51040A8B11D8A42DD0000148
:10E2E000000E756E0001960E746E20EC75F0000E37
:10E2F00000018B6F000E00018A6F000E00018F6F0E
:10E30000000E00018E6F000194A116D000019491BF
:10E31000000E0001976F000E0001966F000E0001C5
:10E32000996F000E0001986F1BEC6AF0EC0E000173
:10E33000C16F800E0001C06F120030C034F0356A2A
:10E34000366A2F34343601E335803450396E33C0A9
:10E3500034F0356A366A3234343601E3358034506D
:10E36000386E3950D8B40CD03850395CD8B00FD092
:10E37000395000083824346E190E345CD8A007D008
:10E3800031C02EF032C02FF033C030F0ABD0385057
:10E39000D8B40CD03950385CD8B00FD03850000801
:10E3A0003924346E190E345CD8A007D02EC02EF05C
:10E3B0002FC02FF030C030F095D0060E376E30BE33
:10E3C000378E33BE378C2F8EFF0E2E16FF0E2F1674
:10E3D000000E3016328EFF0E3116FF0E3216000E72
:10E3E00033163850395CD8B01AD0D890313632361E
:10E3F0003336380638503918D8B40DD0370637C000
:10E4000034F0070E3416D8B406D0EFD7D890303297
:10E410002F322E32392A38503962F8D71DD0395070
:10E42000385CD8B019D0D8902E362F363036390611
:10E4300038503918D8B40DD0370637C034F0070E2D
:10E440003416D8B406D0EFD7D890333232323132C6
:10E45000382A38503962F8D737AE0CD0FF0E2E1A52
:10E46000FF0E2F1AFF0E301A010E2E26000E2F223D
:10E47000000E302237AC0CD0FF0E311AFF0E321ACC
:10E48000FF0E331A010E3126000E3222000E332207
:10E49000000E376E2E5031262F503222305033224C
:10E4A00033AE0ED0FF0E311AFF0E321AFF0E331AA2
:10E4B000010E3126000E3222000E3322010E376E7D
:10E4C00031C001F032C002F033C003F039C004F0B3
:10E4D00037C005F0E0EC6CF001C02EF002C02FF068
:10E4E00003C030F012009EA44FD0C0EC68F0960E2E
:10E4F0007A6E000E7B6ED89000018A35D96E0001CD
:10E500008B35DA6E7A50D9267B50DA2201C0DEFFD5
:10E5100002C0DDFF00018A4B8B2B960E7A6E000E37
:10E520007B6ED89000018A35D96E00018B35DA6E8A
:10E530007A50D9267B50DA2200018EC0DEFF00011E
:10E540008FC0DDFF00018A4B8B2B9E9400018A5106
:10E55000020A8B11D8A418D06DEC69F0060E0001E8
:10E56000846F010E0001856F000E0001866F000EA2
:10E570000001876F040E00018E250001BE6F000EA2
:10E5800000018F210001BF6F000193A306D0D40EBC
:10E590000001C16F700E0001C06F000193A10FD088
:10E5A000000194B10CD0030E00018E5D000E00013D
:10E5B0008F59D8A004D000019481C4EC69F0020EF8
:10E5C00000018A5D000E00018B59D8A02BD00001FC
:10E5D000BF5100018F1904E10001BE5100018E19E5
:10E5E000D8A420D076EC6AF0040E0001BE2500010C
:10E5F000BE6F000E0001BF210001BF6F060E0001BB
:10E6000084250001846F010E000185210001856FC2
:10E61000000E000186210001866F000E0001872197
:10E620000001876F00018A51060A8B11D8A435D0EA
:10E630009EC09AF09FC09BF0A0C09CF0A1C09DF02E
:10E640000001000E756E0001960E746E20EC75F0E0
:10E65000000E00018B6F000E00018A6F000E00019A
:10E660008F6F000E00018E6F000194A116D0000183
:10E670009491000E0001976F000E0001966F000E3E
:10E680000001996F040E0001986FE1EC69F0EC0E47
:10E690000001C16F800E0001C06F12009EA452D015
:10E6A000C0EC68F0960E7A6E000E7B6ED89000017A
:10E6B0008A35D96E00018B35DA6E7A50D9267B50B7
:10E6C000DA2201C0DEFF02C0DDFF00018A4B8B2B86
:10E6D000960E7A6E000E7B6ED89000018A35D96E48
:10E6E00000018B35DA6E7A50D9267B50DA22000190
:10E6F0008EC0DEFF00018FC0DDFF00018A4B8B2B37
:10E7000000018A51020A8B11D8A418D06DEC69F06F
:10E71000060E0001846F010E0001856F000E0001DE
:10E72000866F000E0001876F040E00018E25000128
:10E73000BE6F000E00018F210001BF6F050EA0EC1F
:10E7400068F09E9400018A51020A8B11D8A42BD044
:10E750000001BF5100018F1904E10001BE51000109
:10E760008E19D8A420D076EC6AF0040E0001BE25E4
:10E770000001BE6F000E0001BF210001BF6F060E39
:10E78000000184250001846F010E00018521000134
:10E79000856F000E000186210001866F000E0001CA
:10E7A00087210001876F000193A10FD0000194B170
:10E7B0000CD0030E00018E5D000E00018F59D8A011
:10E7C00004D000019481C4EC69F0000193A30AD045
:10E7D000D40E0001C16F700E0001C06F040EA0ECDA
:10E7E00068F09E9400018A51040A8B11D8A431D09C
:10E7F0000001000E756E0001960E746E20EC75F02F
:10E80000000E00018B6F000E00018A6F000E0001E8
:10E810008F6F000E00018E6F040EA0EC68F09E94C6
:10E82000000194A116D000019491000E0001976F91
:10E83000000E0001966F000E0001996F030E00019B
:10E84000986FA7EC69F0EC0E0001C16F800E00011B
:10E85000C06F1200000191B179D0000193B10CD0CA
:10E86000030E0001885D000E00018959D8A004D074
:10E8700000018807D8A08907000193A156D00001A4
:10E88000884B892B000188058911D8A44ED097ECBC
:10E8900068F0960E7A6E000E7B6ED89000018A3575
:10E8A000D96E00018B35DA6E7A50D9267B50DA2288
:10E8B00001C0DEFF02C0DDFF00018A4B8B2B960EEC
:10E8C0007A6E000E7B6ED89000018A35D96E0001F9
:10E8D0008B35DA6E7A50D9267B50DA2200018EC051
:10E8E000DEFF00018FC0DDFF00018A4B8B2B000192
:10E8F0008A51020A8B11D8A418D06DEC69F0060E6B
:10E900000001846F010E0001856F000E0001866F0B
:10E91000000E0001876F040E00018E250001BE6FFE
:10E92000000E00018F210001BF6F0B0E0001885DFA
:10E93000000E00018959D8A02ED0000E0001896F69
:10E94000000E0001886F0001918125D0000193A184
:10E950000CD0030E0001885D000E00018959D8A07B
:10E9600004D000018807D8A08907000193B103D023
:10E970000001884B892B650E0001885D000E0001A7
:10E980008959D8A008D0000E0001896F000E00013F
:10E99000886F00019191000193A306D0D40E00016D
:10E9A000C16F700E0001C06F00018A51020A8B1105
:10E9B000D8A42BD00001BF5100018F1904E1000140
:10E9C000BE5100018E19D8A420D076EC6AF0040E56
:10E9D0000001BE250001BE6F000E0001BF21000135
:10E9E000BF6F060E000184250001846F010E000137
:10E9F00085210001856F000E000186210001866FD0
:10EA0000000E000187210001876F00018A51040A6E
:10EA10008B11D8A414D00001000E756E0001960E63
:10EA2000746E20EC75F0000E00018B6F000E00017B
:10EA30008A6F000E00018F6F000E00018E6F1200B2
:10EA400020EE06F07450D9267550DA220001DECF90
:10EA5000E0F00001DDCFE1F020EE04F07450D926A3
:10EA60007550DA220001DECFDEF00001DDCFDFF0ED
:10EA700020EE02F07450D9267550DA220001DECF64
:10EA8000DCF00001DDCFDDF074C0D9FF75C0DAFF26
:10EA90000001DECFDAF00001DDCFDBF00001DAC0EB
:10EAA00076F00001DBC077F00001DCC078F00001F7
:10EAB000DDC079F0761E771E781E791E762A000E4C
:10EAC0007722782279220001DE5176240001E26F5C
:10EAD0000001DF5177200001E36F0001E051782051
:10EAE0000001E46F0001E15179200001E56F400E63
:10EAF000766E420E776E0F0E786E000E796E76503F
:10EB00000001E25D77500001E35978500001E459BB
:10EB100079500001E559D8B020D000019251010D83
:10EB20000101000EF324406E0101010EF420416E3C
:10EB3000FF0E436ED40E426E0001000E456E0001C2
:10EB4000C70E446EE2C046F0E3C047F0E4C048F0B0
:10EB5000E5C049F09CEC7AF08DD0800E766E960E72
:10EB6000776E980E786E000E796E76500001E25D39
:10EB700077500001E35978500001E45979500001C1
:10EB8000E559D8B03CD0E2C009F0E3C00AF0E4C0D7
:10EB90000BF0E5C00CF09BEC6AF009C012F00AC063
:10EBA00013F00BC014F0240E156E740E166E490E81
:10EBB000176E9EEC6DF012C0D4F013C0D5F014C0E7
:10EBC000D6F000019251010D0101000EF324406EB8
:10EBD0000101010EF420416EFF0E436EE70E426EFE
:10EBE0000001000E456E0001C70E446ED4C046F011
:10EBF000D5C047F0D6C048F09CEC7AF03BD0E2C0DC
:10EC000009F0E3C00AF0E4C00BF0E5C00CF09BECA7
:10EC10006AF009C012F00AC013F00BC014F0240E01
:10EC2000156E740E166E490E176E9EEC6DF012C0C6
:10EC3000D7F013C0D8F014C0D9F000019251010DE3
:10EC40000101000EF324406E0101010EF420416E1B
:10EC5000FF0E436ECA0E426E0001000E456E0001AB
:10EC6000C70E446ED7C046F0D8C047F0D9C048F0B0
:10EC70009CEC7AF04050000192250001926F120046
:10EC8000050E00018E5D000E00018F59D8A051D0F5
:10EC9000000193A34ED0000E00018F6F000E000103
:10ECA0008E6F00019851040A9911D8A409D0000E62
:10ECB0000001996F030E0001986FA7EC69F039D03D
:10ECC00000019851030A9911D8A409D0000E00013F
:10ECD000996F020E0001986FFEEC69F02AD00001D6
:10ECE0009851020A9911D8A409D0000E0001996F19
:10ECF000010E0001986F8AEC69F01BD000019805A5
:10ED00009911D8A409D0000E0001996F000E0001DE
:10ED1000986F1BEC6AF00DD0000199519811D8A49E
:10ED200008D0000E0001996F040E0001986FE1EC0D
:10ED300069F0000193A1C8D0000199519811D8A49D
:10ED400022D0E10E0001C16F980E0001C06F9E94A9
:10ED5000000E00018B6F000E00018A6F000E000193
:10ED60008F6F000E00018E6F000E0001976F000E76
:10ED70000001966F000E0001996F000E0001986F60
:10ED80006DEC69F0A1D0000198059911D8A418D0B4
:10ED9000000193B399D0E80E0001C16F540E000139
:10EDA000C06F000E00018B6F000E00018A6F000E15
:10EDB00000018F6F000E00018E6F6DEC69F084D042
:10EDC00000019851040A9911D8A425D0000193B3E9
:10EDD0007BD0E40E0001C16FE60E0001C06F9E946F
:10EDE000000E00018B6F000E00018A6F000E000103
:10EDF0008F6F000E00018E6F000E0001976F000EE6
:10EE00000001966F000E0001996F000E0001986FCF
:10EE10006DEC69F059D000019851020A9911D8A4FB
:10EE200025D0000193B350D0E00E0001C16F280E31
:10EE30000001C06F9E94000E00018B6F000E000158
:10EE40008A6F000E00018F6F000E00018E6F000EA2
:10EE50000001976F000E0001966F000E0001996F80
:10EE6000000E0001986F6DEC69F02ED000019851F2
:10EE7000030A9911D8A428D0000193B325D0E60E37
:10EE80000001C16F9C0E0001C06F9E94040EA0ECA7
:10EE900068F09E94000E00018B6F000E00018A6FD7
:10EEA000000E00018F6F000E00018E6F000E00013A
:10EEB000976F000E0001966F000E0001996F000E13
:10EEC0000001986F6DEC69F012002D6E6D0E2D64CF
:10EED000A2D0000E126E030E116E000E0A6E0A0E04
:10EEE000096E000E046E640E036E2DC001F0026AFE
:10EEF000F5EC6BF001C007F002C008F08EEC6CF08E
:10EF0000090E07240F6E000E0820106EF2EC68F058
:10EF10000F0E0F24F66EFF0E1020F76EF86A000E2B
:10EF2000F8220900F5CF18F00900F5CF19F00A0012
:10EF3000F5CF1AF0000E0A6E640E096E2DC007F0B0
:10EF4000086A8EEC6CF0120E07240F6E000E08207B
:10EF5000106E000E126E030E116EF2EC68F00F0EC2
:10EF60000F24F66EFF0E1020F76EF86A000EF822DE
:10EF70000900F5CF15F00900F5CF16F00A00F5CF1E
:10EF800017F009EC6EF015C02AF016C02BF017C070
:10EF90002CF0000E126E030E116E000E046E0A0E9F
:10EFA000036E2DC001F0026AF5EC6BF001C00FF0AA
:10EFB00002C010F0F2EC68F00F0E0F24F66EFF0E98
:10EFC0001020F76EF86A000EF8220900F5CF18F04D
:10EFD0000900F5CF19F00A00F5CF1AF02AC015F094
:10EFE0002BC016F02CC017F009EC6EF015C027F0FE
:10EFF00016C028F017C029F027C015F028C016F059
:10F0000029C017F0000E186E000E196E3F0E1A6E12
:10F0100009EC6EF082D00A0E2D6463D0000E126EE1
:10F02000030E116E000E046E0A0E036E2DC001F069
:10F03000026AF5EC6BF001C00FF002C010F0F2ECC8
:10F0400068F00F0E0F24F66EFF0E1020F76EF86AB0
:10F05000000EF8220900F5CF18F00900F5CF19F0DD
:10F060000A00F5CF1AF0000E0A6E0A0E096E2DC0C6
:10F0700007F0086A8EEC6CF0090E07240F6E000E84
:10F080000820106E000E126E030E116EF2EC68F086
:10F090000F0E0F24F66EFF0E1020F76EF86A000EAA
:10F0A000F8220900F5CF15F00900F5CF16F00A0097
:10F0B000F5CF17F009EC6EF015C02AF016C02BF052
:10F0C00017C02CF02AC015F02BC016F02CC017F07A
:10F0D000000E186E000E196E3F0E1A6E09EC6EF0DF
:10F0E0001CD02D50030D0F0EF324F66EFF0EF420EE
:10F0F000F76EF86A000EF8220900F5CF15F0090046
:10F10000F5CF16F00A00F5CF17F0000E186E000EBE
:10F11000196E3F0E1A6E09EC6EF015C024F016C081
:10F1200025F017C026F012002A6E2AAEF9D02A6CFC
:10F130002A50800A120FD8A094D0000E126E030E2F
:10F14000116E000E0A6E0A0E096E000E046E640E39
:10F15000036E2A50016E026A01BE0206F5EC6BF0E6
:10F1600001C007F002C008F08EEC6CF0090E072415
:10F170000F6E000E0820106EF2EC68F00F0E0F24D8
:10F18000F66EFF0E1020F76EF86A000EF8220900E6
:10F19000F5CF18F00900F5CF19F00A00F5CF1AF0F5
:10F1A000000E0A6E640E096E2A50076E086A07BECA
:10F1B00008068EEC6CF0120E07240F6E000E08206D
:10F1C000106E000E126E030E116EF2EC68F00F0E50
:10F1D0000F24F66EFF0E1020F76EF86A000EF8226C
:10F1E0000900F5CF15F00900F5CF16F00A00F5CFAC
:10F1F00017F009EC6EF015C027F016C028F017C004
:10F2000029F027C015F028C016F029C017F0000E0D
:10F21000126E030E116E000E046E0A0E036E2A505B
:10F22000016E026A01BE0206F5EC6BF001C00FF040
:10F2300002C010F0F2EC68F00F0E0F24F66EFF0E15
:10F240001020F76EF86A000EF8220900F5CF18F0CA
:10F250000900F5CF19F00A00F5CF1AF009EC6EF0AD
:10F260004FD12A50800A750FD8A053D0000E0A6ED5
:10F270000A0E096E2A50076E086A07BE08068EEC51
:10F280006CF0090E07240F6E000E0820106E000EA1
:10F29000126E030E116EF2EC68F00F0E0F24F66E74
:10F2A000FF0E1020F76EF86A000EF8220900F5CF65
:10F2B00015F00900F5CF16F00A00F5CF17F0000E93
:10F2C000126E030E116E000E046E0A0E036E2A50AB
:10F2D000016E026A01BE0206F5EC6BF001C00FF090
:10F2E00002C010F0F2EC68F00F0E0F24F66EFF0E65
:10F2F0001020F76EF86A000EF8220900F5CF18F01A
:10F300000900F5CF19F00A00F5CF1AF009EC6EF0FC
:10F31000F7D02A50030D0F0EF324F66EFF0EFDD02A
:10F320002A50800A120FD8A094D0000E126E030E3D
:10F33000116E000E0A6E0A0E096E000E046E640E47
:10F34000036E2A50016E026A01BE0206F5EC6BF0F4
:10F3500001C007F002C008F08EEC6CF0090E072423
:10F360000F6E000E0820106EF2EC68F0360E0F24BF
:10F37000F66EFF0E1020F76EF86A000EF8220900F4
:10F38000F5CF18F00900F5CF19F00A00F5CF1AF003
:10F39000000E0A6E640E096E2A50076E086A07BED8
:10F3A00008068EEC6CF0120E07240F6E000E08207B
:10F3B000106E000E126E030E116EF2EC68F0360E37
:10F3C0000F24F66EFF0E1020F76EF86A000EF8227A
:10F3D0000900F5CF15F00900F5CF16F00A00F5CFBA
:10F3E00017F009EC6EF015C027F016C028F017C012
:10F3F00029F027C015F028C016F029C017F0000E1C
:10F40000126E030E116E000E046E0A0E036E2A5069
:10F41000016E026A01BE0206F5EC6BF001C00FF04E
:10F4200002C010F0F2EC68F0360E0F24F66EFF0EFC
:10F430001020F76EF86A000EF8220900F5CF18F0D8
:10F440000900F5CF19F00A00F5CF1AF009EC6EF0BB
:10F4500057D02A50800A750FD8A059D0000E0A6ED6
:10F460000A0E096E2A50076E086A07BE08068EEC5F
:10F470006CF0090E07240F6E000E0820106E000EAF
:10F48000126E030E116EF2EC68F0360E0F24F66E5B
:10F49000FF0E1020F76EF86A000EF8220900F5CF73
:10F4A00015F00900F5CF16F00A00F5CF17F0000EA1
:10F4B000126E030E116E000E046E0A0E036E2A50B9
:10F4C000016E026A01BE0206F5EC6BF001C00FF09E
:10F4D00002C010F0F2EC68F0360E0F24F66EFF0E4C
:10F4E0001020F76EF86A000EF8220900F5CF18F028
:10F4F0000900F5CF19F00A00F5CF1AF009EC6EF00B
:10F5000015C024F016C025F017C026F014D02A50DC
:10F51000030D360EF324F66EFF0EF420F76EF86A34
:10F52000000EF8220900F5CF24F00900F5CF25F0F0
:10F530000A00F5CF26F01200000E606E000E5F6E1E
:10F54000000E626E440E616E5BEF7FF07350250A11
:10F55000D8B40CD040C0D9FF41C0DAFF73C0DFFF80
:10F56000404A412A5F4A602A5BEF7FF0000E676ED7
:10F57000000E666E42C0F6FF43C0F7FFF86A08004F
:10F58000F5502E0AD8A430D0678C424A432A000E88
:10F590006E6E000E6D6E1CD06DC00FF06EC010F060
:10F5A000000E126E0A0E116EF2EC68F042C0F6FF09
:10F5B00043C0F7FFF86A0800F5500F26000E10222E
:10F5C000D00E0F246D6EFF0E10206E6E424A432A3D
:10F5D00042C0F6FF43C0F7FFF86A0800F550CFECD1
:10F5E00068F0D8A079D0D8D7000E6E6E000E6D6E80
:10F5F000678872D0668870D0678489D061C0D9FF6F
:10F6000062C0DAFFDECF6FF0DDCF70F0020E612650
:10F61000000E622270506F10D8A404D0FF0E706EDE
:10F62000EF0E6F6E000E726E000E716E02D0714A98
:10F63000722A6FC04AF070C04BF071504A26725067
:10F640004B224AC0F6FF4BC0F7FF000EF86E0F0EBC
:10F65000F76403D00800F55005D0F6CFE9FFF7CFE7
:10F66000EAFFEF500009D8A4E2D76E506D10D8B46D
:10F6700027D071506D5C72506E58D8B021D06DC0DB
:10F6800071F06EC072F01CD06FC0F6FF70C0F7FF53
:10F69000000EF86E40C0D9FF41C0DAFF0F0EF764CC
:10F6A00003D00800F55005D0F6CFE9FFF7CFEAFF09
:10F6B000EF50DF6E6F4A702A404A412A5F4A602A43
:10F6C0007106D8A072067128D8B47228D8B4F3D3C2
:10F6D000DBD7C00E66121BD042C0F6FF43C0F7FF57
:10F6E000424A432AF86A0800F5CF73F07350000AC3
:10F6F000D8B4EED3660AD8B47FD70A0AD8B47AD77A
:10F700001F0AD8B47BD7060AD8B4E3D7D4D3070EE0
:10F710006714D8B4FAD267A804D0000E6E6E060E35
:10F720006D6E61C0D9FF62C0DAFFDECF6AF0DECF56
:10F730006BF0DDCF6CF0030E6126000E62226C5080
:10F74000800A800F05E1000E6B5C02E1000E6A5C2E
:10F75000D8B010D06AC001F06BC002F06CC003F0EA
:10F76000DFEC68F001C06AF002C06BF003C06CF01F
:10F77000030E6612000E696E000E686E7F0E6C142A
:10F780006B106A10D8B48BD0820E4A6EFF0E4B6E8F
:10F790006AC04CF06BC04DF06CC04EF06DC04FF0C5
:10F7A000100E05D0D8904F324E324D324C32E82EEA
:10F7B000F9D74C504A24686E000E4B20696E6806DB
:10F7C000D8A0690668C00FF069C010F0000E126E74
:10F7D000030E116EF2EC68F00FC068F010C069F013
:10F7E00068C007F069C008F0000E0A6E0A0E096EC4
:10F7F0008EEC6CF007C068F008C069F06950800AB0
:10F80000F36E800EF35C000ED8B4685CD8B003D001
:10F810006806D8A069066850000894EC78F024C007
:10F8200063F025C064F026C065F063C015F064C0C5
:10F8300016F065C017F06AC018F06BC019F06CC004
:10F840001AF009EC6EF015C063F016C064F017C032
:10F8500065F063C001F064C002F065C003F0000E03
:10F86000046E800E056E3F0E066EADEC6BF0D8B0E8
:10F8700004D06806D8A0690612D063C001F064C045
:10F8800002F065C003F0000E046E200E056E410EFE
:10F89000066EADEC6BF0D8A002D0684A692A6E50B3
:10F8A000800AF36E800EF35C0D0ED8B46D5CD8B098
:10F8B00017D06AC02EF06BC02FF06CC030F06D50C6
:10F8C00065EC77F024C031F025C032F026C033F06B
:10F8D0009DEC71F02EC06AF02FC06BF030C06CF060
:10F8E0006950800AF36E800EF35C0A0ED8B4685C2F
:10F8F000D8B024D07F0E6C146B106A10D8B462D0CC
:10F900006AC02BF06BC02CF06CC02DF034EC6DF0A5
:10F910002BC04AF02CC04BF02DC04CF02EC04DF047
:10F920004D504A104B104C10D8A44CD06950800A4E
:10F93000800F020ED8B4685CD8A044D063C001F038
:10F9400064C002F065C003F0700E046E890E056E8F
:10F95000400E066EADEC6BF0D8B002D0F70E01D0C1
:10F96000F80E6826FF0E6922685094EC78F024C0E7
:10F9700063F025C064F026C065F06AC001F06BC07A
:10F9800002F06CC003F063C004F064C005F065C011
:10F9900006F0F9EC6EF001C053F002C054F003C061
:10F9A00055F004C056F053C06FF054C070F055C00D
:10F9B00071F056C072F0000E6A6E000E6B6E000E93
:10F9C0006C6E32D06AC02BF06BC02CF06CC02DF086
:10F9D00034EC6DF02BC06FF02CC070F02DC071F0C6
:10F9E0002EC072F06AC03AF06BC03BF06CC03CF0C5
:10F9F0006FC009F070C00AF071C00BF072C00CF05B
:10FA00009BEC6AF009C03DF00AC03EF00BC03FF02D
:10FA10001AEC69F03AC06AF03BC06BF03CC06CF085
:10FA2000000E696E000E686E010E736E73500A0A46
:10FA3000D8B41BD07350040DE70EF324F66EFE0EFF
:10FA4000F420F76EF86A000EF8220900F5506F5C9A
:10FA50000900F55070580900F55071580900F5502B
:10FA60007258D8A002D0732AE1D7030E66144A6EEA
:10FA7000000E67144B6E4B504A10D8B454D040C09F
:10FA8000D9FF41C0DAFF2D0E49D06FC001F070C020
:10FA900002F071C003F072C004F07350040DE70E61
:10FAA000F324F66EFE0EF420F76EF86A000EF822CC
:10FAB0000900F5CF05F00900F5CF06F00900F5CFF4
:10FAC00007F00A00F5CF08F06CEC6BF001C057F0BE
:10FAD00002C058F003C059F004C05AF057C00EF0ED
:10FAE00058C00FF059C010F05AC011F00A0E126E33
:10FAF000000E136E000E146E000E156EC9EC6AF047
:10FB00000EC057F00FC058F010C059F011C05AF095
:10FB10005750300F40C0D9FF41C0DAFFDF6E404A76
:10FB2000412A5F4A602A73067328D8B40ED0ADD735
:10FB300040C0D9FF41C0DAFF300EDF6E404A412A93
:10FB40005F4A602A6806D8A069066950800AF36E89
:10FB5000800EF35C010ED8B4685CD8B0E9D76E5063
:10FB6000800A800F090ED8B46D5CD8A003D0080EAF
:10FB7000736E02D06DC073F073506D5E000E73BE75
:10FB8000FF0E6E5A7350D8B40AD040C0D9FF41C09E
:10FB9000DAFF2E0EDF6E404A412A5F4A602A735018
:10FBA00094EC78F024C050F025C051F026C052F0FB
:10FBB0006AC018F06BC019F06CC01AF050C015F094
:10FBC00051C016F052C017F009EC6EF015C02BF0C2
:10FBD00016C02CF017C02DF034EC6DF02BC06FF078
:10FBE0002CC070F02DC071F02EC072F077D06FC0B5
:10FBF00001F070C002F071C003F072C004F07350E5
:10FC0000040DE70EF324F66EFE0EF420F76EF86A8C
:10FC1000000EF8220900F5CF05F00900F5CF06F037
:10FC20000900F5CF07F00A00F5CF08F06CEC6BF097
:10FC300001C05BF002C05CF003C05DF004C05EF088
:10FC40005BC00EF05CC00FF05DC010F05EC011F044
:10FC50000A0E126E000E136E000E146E000E156E5C
:10FC6000C9EC6AF00EC05BF00FC05CF010C05DF034
:10FC700011C05EF05B50300F40C0D9FF41C0DAFFC9
:10FC8000DF6E404A412A5F4A602A6FC00EF070C0A2
:10FC90000FF071C010F072C011F07350040DE70E38
:10FCA000F324F66EFE0EF420F76EF86A000EF822CA
:10FCB0000900F5CF12F00900F5CF13F00900F5CFD8
:10FCC00014F00A00F5CF15F0C9EC6AF00EC06FF021
:10FCD0000FC070F010C071F011C072F0730673287D
:10FCE000D8B40ED084D740C0D9FF41C0DAFF300E5F
:10FCF000DF6E404A412A5F4A602A6D06D8A06E0630
:10FD00006E506D10D8B4D7D0EED766A80ED061C0B3
:10FD1000D9FF62C0DAFFDECF6FF0DECF70F0DECF4A
:10FD200071F0DECF72F0040E0FD061C0D9FF62C057
:10FD3000DAFFDECF4AF0DDCF4BF04AC06FF04BC0A8
:10FD400070F0716A726A020E6126000E62226E50B5
:10FD50006D10D8A408D072506F1070107110D8A414
:10FD600002D06D4A6E2A010E736E73500A0AD8B41F
:10FD70001BD07350040DE70EF324F66EFE0EF42034
:10FD8000F76EF86A000EF8220900F5506F5C090062
:10FD9000F55070580900F55071580900F550725827
:10FDA000D8A002D0732AE1D7800E73BE7F0E4A6EB0
:10FDB0006D50735C6E50800A4A58D8B003D06DC045
:10FDC00073F010D06E50800A4A6E73506D5C800ED6
:10FDD00073BE7F0E4A58D8B005D073506D6E6E6AF0
:10FDE0006DBE6E06030E66144A6E000E67144B6EEF
:10FDF0004B504A10D8B457D040C0D9FF41C0DAFFA9
:10FE00002D0EDF6E4CD06DC04AF06EC04BF0D89016
:10FE10004A364B36D8904A364B36E70E4A24F66EB1
:10FE2000FE0E4B20F76EF86A000EF8220900F5CF9F
:10FE300005F00900F5CF06F00900F5CF07F00A003C
:10FE4000F5CF08F06FC001F070C002F071C003F090
:10FE500072C004F06CEC6BF001C00EF002C00FF049
:10FE600003C010F004C011F00A0E126E000E136EE3
:10FE7000000E146E000E156EC9EC6AF00EC04CF048
:10FE80000FC04DF010C04EF011C04FF04C50300F6D
:10FE9000736E40C0D9FF41C0DAFF73C0DFFF404A34
:10FEA000412A5F4A602A6D06D8A06E066D28D8B434
:10FEB0006E28D8A4A8D742C0F6FF43C0F7FF424A35
:10FEC000432AF86A0800F5CF73F07366A6EF7AF05C
:10FED00040C0D9FF41C0DAFF000EDF6E5FC040F0C6
:10FEE00060C041F0120000010000000A0000006440
:10FEF000000000E803000010270000A08601004079
:10FF0000420F008096980000E1F50500CA9A3B0078
:10FF1000803FCDCC3DD7233C12833AB7D138C6279A
:10FF200037388635C0D633CC2B32708930E7DB2E9C
:10FF3000E53C1E42A20D00803F00204100C8420067
:10FF40007A44401C4650C34724744997184BBCBEA2
:10FF50004C6B6E4E03155079AD60F34971257335C6
:10FF60002E205069636B6574204631200A0025738A
:10FF7000312E2053746F707761746368200A0025F6
:10FF800073332E2050656E64756C756D200A0025E4
:10FF90007353696E676C652052756E0A0025733263
:10FFA0002E2050756C7365200A002573342E20476F
:10FFB000617465200A002573202030206D530A00EB
:10FFC0002573256C75206D530A002573252E336625
:10FFD00020730A002573256C752075730A0025733C
:10FFE0002D202D202D0A002573256620730A002858
:10FFF0006E756C6C2900257325730A00257300004B
:020000040030CA
:0E00000000041F1E000081000FC00FE00F4023
:0200000400F00A
:10000000FFFFFFFFFFFFFFFFFFFFFFFFFFFFFFFF00
:10001000FFFFFFFFFFFFFFFFFFFFFFFFFFFFFFFFF0
:10002000FFFFFFFFFFFFFFFFFFFFFFFFFFFFFFFFE0
:10003000FFFFFFFFFFFFFFFFFFFFFFFFFFFFFFFFD0
:020000040020DA
:00000001FF
